{
  "contractName": "ERC721Enumerable",
  "abi": [
    {
      "anonymous": false,
      "inputs": [
        {
          "indexed": true,
          "internalType": "address",
          "name": "from",
          "type": "address"
        },
        {
          "indexed": true,
          "internalType": "address",
          "name": "to",
          "type": "address"
        },
        {
          "indexed": true,
          "internalType": "uint256",
          "name": "tokenID",
          "type": "uint256"
        }
      ],
      "name": "Transfer",
      "type": "event"
    },
    {
      "inputs": [
        {
          "internalType": "address",
          "name": "_owner",
          "type": "address"
        }
      ],
      "name": "balanceOf",
      "outputs": [
        {
          "internalType": "uint256",
          "name": "balance",
          "type": "uint256"
        }
      ],
      "stateMutability": "view",
      "type": "function"
    },
    {
      "inputs": [
        {
          "internalType": "uint256",
          "name": "_tokenId",
          "type": "uint256"
        }
      ],
      "name": "ownerOf",
      "outputs": [
        {
          "internalType": "address",
          "name": "owner",
          "type": "address"
        }
      ],
      "stateMutability": "view",
      "type": "function"
    },
    {
      "inputs": [],
      "name": "totalSupply",
      "outputs": [
        {
          "internalType": "uint256",
          "name": "supply",
          "type": "uint256"
        }
      ],
      "stateMutability": "view",
      "type": "function"
    },
    {
      "inputs": [
        {
          "internalType": "uint256",
          "name": "_index",
          "type": "uint256"
        }
      ],
      "name": "tokenByIndex",
      "outputs": [
        {
          "internalType": "uint256",
          "name": "tokenId",
          "type": "uint256"
        }
      ],
      "stateMutability": "view",
      "type": "function"
    },
    {
      "inputs": [
        {
          "internalType": "address",
          "name": "_owner",
          "type": "address"
        },
        {
          "internalType": "uint256",
          "name": "_index",
          "type": "uint256"
        }
      ],
      "name": "tokenOfOwnerByIndex",
      "outputs": [
        {
          "internalType": "uint256",
          "name": "ownerTokenId",
          "type": "uint256"
        }
      ],
      "stateMutability": "view",
      "type": "function"
    }
  ],
  "bytecode": "0x608060405234801561001057600080fd5b50610818806100206000396000f3fe608060405234801561001057600080fd5b50600436106100575760003560e01c806318160ddd1461005c5780632f745c591461007a5780634f6ccce7146100aa5780636352211e146100da57806370a082311461010a575b600080fd5b61006461013a565b60405161007191906103ec565b60405180910390f35b610094600480360381019061008f9190610496565b610147565b6040516100a191906103ec565b60405180910390f35b6100c460048036038101906100bf91906104d6565b6101f8565b6040516100d191906103ec565b60405180910390f35b6100f460048036038101906100ef91906104d6565b61026a565b6040516101019190610512565b60405180910390f35b610124600480360381019061011f919061052d565b61031b565b60405161013191906103ec565b60405180910390f35b6000600280549050905090565b60006101528361031b565b821115610194576040517f08c379a000000000000000000000000000000000000000000000000000000000815260040161018b906105dd565b60405180910390fd5b600460008473ffffffffffffffffffffffffffffffffffffffff1673ffffffffffffffffffffffffffffffffffffffff16815260200190815260200160002082815481106101e5576101e46105fd565b5b9060005260206000200154905092915050565b600061020261013a565b821115610244576040517f08c379a000000000000000000000000000000000000000000000000000000000815260040161023b9061069e565b60405180910390fd5b60028281548110610258576102576105fd565b5b90600052602060002001549050919050565b60008060008084815260200190815260200160002060009054906101000a900473ffffffffffffffffffffffffffffffffffffffff169050600073ffffffffffffffffffffffffffffffffffffffff168173ffffffffffffffffffffffffffffffffffffffff161415610312576040517f08c379a000000000000000000000000000000000000000000000000000000000815260040161030990610730565b60405180910390fd5b80915050919050565b60008073ffffffffffffffffffffffffffffffffffffffff168273ffffffffffffffffffffffffffffffffffffffff16141561038c576040517f08c379a0000000000000000000000000000000000000000000000000000000008152600401610383906107c2565b60405180910390fd5b600160008373ffffffffffffffffffffffffffffffffffffffff1673ffffffffffffffffffffffffffffffffffffffff168152602001908152602001600020549050919050565b6000819050919050565b6103e6816103d3565b82525050565b600060208201905061040160008301846103dd565b92915050565b600080fd5b600073ffffffffffffffffffffffffffffffffffffffff82169050919050565b60006104378261040c565b9050919050565b6104478161042c565b811461045257600080fd5b50565b6000813590506104648161043e565b92915050565b610473816103d3565b811461047e57600080fd5b50565b6000813590506104908161046a565b92915050565b600080604083850312156104ad576104ac610407565b5b60006104bb85828601610455565b92505060206104cc85828601610481565b9150509250929050565b6000602082840312156104ec576104eb610407565b5b60006104fa84828501610481565b91505092915050565b61050c8161042c565b82525050565b60006020820190506105276000830184610503565b92915050565b60006020828403121561054357610542610407565b5b600061055184828501610455565b91505092915050565b600082825260208201905092915050565b7f4f776e657220746f6b656e20696e646578206973206f7574206f6620626f756e60008201527f6473210000000000000000000000000000000000000000000000000000000000602082015250565b60006105c760238361055a565b91506105d28261056b565b604082019050919050565b600060208201905081810360008301526105f6816105ba565b9050919050565b7f4e487b7100000000000000000000000000000000000000000000000000000000600052603260045260246000fd5b7f476c6f62616c20746f6b656e20696e646578206973206f7574206f6620626f7560008201527f6e64732100000000000000000000000000000000000000000000000000000000602082015250565b600061068860248361055a565b91506106938261062c565b604082019050919050565b600060208201905081810360008301526106b78161067b565b9050919050565b7f4552433732313a206f776e657220746f20746865207a65726f2061646472657360008201527f7300000000000000000000000000000000000000000000000000000000000000602082015250565b600061071a60218361055a565b9150610725826106be565b604082019050919050565b600060208201905081810360008301526107498161070d565b9050919050565b7f4552433732313a2062616c616e636520746f20746865207a65726f206164647260008201527f6573730000000000000000000000000000000000000000000000000000000000602082015250565b60006107ac60238361055a565b91506107b782610750565b604082019050919050565b600060208201905081810360008301526107db8161079f565b905091905056fea2646970667358221220f9911d39b9ee0dff7bceebb951e5cedb2843285ec4fe49a4a181303378f9485464736f6c63430008090033",
  "immutableReferences": {},
  "source": "// SPDX-License-Identifier: MIT\r\npragma solidity ^0.8.0;\r\n\r\nimport './ERC721.sol';\r\n\r\ncontract ERC721Enumerable is ERC721 {\r\n  uint256[] private _allTokens;\r\n\r\n  // Mapping from tokenId to position on _allTokens array\r\n  mapping (uint256 => uint256) private _allTokensIndex;\r\n  // Mapping of owner to list of all owner token ids\r\n  mapping (address => uint256[]) private _ownedTokens;\r\n  // Mapping from tokenId index of the owner tokens list\r\n  mapping (uint256 => uint256) private _ownedTokensIndex;\r\n\r\n  function totalSupply() view public returns (uint supply) {\r\n    return _allTokens.length;\r\n  }\r\n\r\n  function tokenByIndex(uint256 _index) view public returns (uint256 tokenId) {\r\n    require(_index <= totalSupply(), \"Global token index is out of bounds!\");\r\n    return _allTokens[_index];\r\n  }\r\n\r\n  function tokenOfOwnerByIndex(address _owner, uint256 _index) view public returns (uint256 ownerTokenId) {\r\n    require(_index <= balanceOf(_owner), \"Owner token index is out of bounds!\");\r\n    return _ownedTokens[_owner][_index];\r\n  }\r\n\r\n  function _mint(address _to, uint256 _tokenId) internal override(ERC721) {\r\n    super._mint(_to, _tokenId);\r\n\r\n    _addTokensToAllTokenEnumeration(_tokenId);\r\n    _addTokensToOwnerEnumeration(_to, _tokenId);\r\n  }\r\n\r\n  function _addTokensToAllTokenEnumeration(uint256 _tokenId) private {\r\n    _allTokensIndex[_tokenId] = _allTokens.length;\r\n    _allTokens.push(_tokenId);\r\n  }\r\n\r\n  function _addTokensToOwnerEnumeration(address _owner, uint256 _tokenId) private {\r\n    _ownedTokensIndex[_tokenId] = _ownedTokens[_owner].length;\r\n    _ownedTokens[_owner].push(_tokenId);\r\n  }\r\n}",
  "sourcePath": "C:\\Users\\emman\\Documents\\tutorial\\ethereum\\nft_with_web\\projects\\starter-kit\\src\\contracts\\ERC721Enumerable.sol",
  "compiler": {
    "name": "solc",
    "version": "0.8.9+commit.e5eed63a.Emscripten.clang"
  },
  "schemaVersion": "3.4.3",
  "updatedAt": "2021-10-06T21:18:31.881Z",
  "devdoc": {
    "kind": "dev",
    "methods": {},
    "version": 1
  },
  "userdoc": {
    "kind": "user",
    "methods": {},
    "version": 1
  }
}