{
  "contractName": "ERC721Enumerable",
  "abi": [
    {
      "anonymous": false,
      "inputs": [
        {
          "indexed": true,
          "internalType": "address",
          "name": "from",
          "type": "address"
        },
        {
          "indexed": true,
          "internalType": "address",
          "name": "to",
          "type": "address"
        },
        {
          "indexed": true,
          "internalType": "uint256",
          "name": "tokenID",
          "type": "uint256"
        }
      ],
      "name": "Transfer",
      "type": "event"
    },
    {
      "inputs": [
        {
          "internalType": "address",
          "name": "_owner",
          "type": "address"
        }
      ],
      "name": "balanceOf",
      "outputs": [
        {
          "internalType": "uint256",
          "name": "balance",
          "type": "uint256"
        }
      ],
      "stateMutability": "view",
      "type": "function"
    },
    {
      "inputs": [
        {
          "internalType": "uint256",
          "name": "_tokenId",
          "type": "uint256"
        }
      ],
      "name": "ownerOf",
      "outputs": [
        {
          "internalType": "address",
          "name": "owner",
          "type": "address"
        }
      ],
      "stateMutability": "view",
      "type": "function"
    },
    {
      "inputs": [],
      "name": "totalSupply",
      "outputs": [
        {
          "internalType": "uint256",
          "name": "supply",
          "type": "uint256"
        }
      ],
      "stateMutability": "view",
      "type": "function"
    },
    {
      "inputs": [
        {
          "internalType": "uint256",
          "name": "_index",
          "type": "uint256"
        }
      ],
      "name": "tokenByIndex",
      "outputs": [
        {
          "internalType": "uint256",
          "name": "tokenId",
          "type": "uint256"
        }
      ],
      "stateMutability": "view",
      "type": "function"
    },
    {
      "inputs": [
        {
          "internalType": "address",
          "name": "_owner",
          "type": "address"
        },
        {
          "internalType": "uint256",
          "name": "_index",
          "type": "uint256"
        }
      ],
      "name": "tokenOfOwnerByIndex",
      "outputs": [
        {
          "internalType": "uint256",
          "name": "tokenId",
          "type": "uint256"
        }
      ],
      "stateMutability": "view",
      "type": "function"
    }
  ],
  "bytecode": "0x608060405234801561001057600080fd5b506105b1806100206000396000f3fe608060405234801561001057600080fd5b50600436106100575760003560e01c806318160ddd1461005c5780632f745c591461007a5780634f6ccce7146100aa5780636352211e146100da57806370a082311461010a575b600080fd5b61006461013a565b60405161007191906102d8565b60405180910390f35b610094600480360381019061008f9190610382565b610147565b6040516100a191906102d8565b60405180910390f35b6100c460048036038101906100bf91906103c2565b61014f565b6040516100d191906102d8565b60405180910390f35b6100f460048036038101906100ef91906103c2565b610156565b60405161010191906103fe565b60405180910390f35b610124600480360381019061011f9190610419565b610207565b60405161013191906102d8565b60405180910390f35b6000600280549050905090565b600092915050565b6000919050565b60008060008084815260200190815260200160002060009054906101000a900473ffffffffffffffffffffffffffffffffffffffff169050600073ffffffffffffffffffffffffffffffffffffffff168173ffffffffffffffffffffffffffffffffffffffff1614156101fe576040517f08c379a00000000000000000000000000000000000000000000000000000000081526004016101f5906104c9565b60405180910390fd5b80915050919050565b60008073ffffffffffffffffffffffffffffffffffffffff168273ffffffffffffffffffffffffffffffffffffffff161415610278576040517f08c379a000000000000000000000000000000000000000000000000000000000815260040161026f9061055b565b60405180910390fd5b600160008373ffffffffffffffffffffffffffffffffffffffff1673ffffffffffffffffffffffffffffffffffffffff168152602001908152602001600020549050919050565b6000819050919050565b6102d2816102bf565b82525050565b60006020820190506102ed60008301846102c9565b92915050565b600080fd5b600073ffffffffffffffffffffffffffffffffffffffff82169050919050565b6000610323826102f8565b9050919050565b61033381610318565b811461033e57600080fd5b50565b6000813590506103508161032a565b92915050565b61035f816102bf565b811461036a57600080fd5b50565b60008135905061037c81610356565b92915050565b60008060408385031215610399576103986102f3565b5b60006103a785828601610341565b92505060206103b88582860161036d565b9150509250929050565b6000602082840312156103d8576103d76102f3565b5b60006103e68482850161036d565b91505092915050565b6103f881610318565b82525050565b600060208201905061041360008301846103ef565b92915050565b60006020828403121561042f5761042e6102f3565b5b600061043d84828501610341565b91505092915050565b600082825260208201905092915050565b7f4552433732313a206f776e657220746f20746865207a65726f2061646472657360008201527f7300000000000000000000000000000000000000000000000000000000000000602082015250565b60006104b3602183610446565b91506104be82610457565b604082019050919050565b600060208201905081810360008301526104e2816104a6565b9050919050565b7f4552433732313a2062616c616e636520746f20746865207a65726f206164647260008201527f6573730000000000000000000000000000000000000000000000000000000000602082015250565b6000610545602383610446565b9150610550826104e9565b604082019050919050565b6000602082019050818103600083015261057481610538565b905091905056fea2646970667358221220445bfdc2475f6272ca8ccdcb63ac6275ab92d057b30efd5a8d5e3a96ef7eed0364736f6c63430008090033",
  "immutableReferences": {},
  "source": "// SPDX-License-Identifier: MIT\npragma solidity ^0.8.0;\n\nimport './ERC721.sol';\n\ncontract ERC721Enumerable is ERC721 {\n  uint256[] private _allTokens;\n\n  // Mapping from tokenId to position on _allTokens array\n  mapping (uint256 => uint256) private _allTokensIndex;\n  // Mapping of owner to list of all owner token ids\n  mapping (address => uint256[]) private _ownedTokens;\n  // Mapping from tokenId index of the owner tokens list\n  mapping (uint256 => uint256) private _ownedTokensIndex;\n\n  function totalSupply() view public returns (uint supply) {\n    return _allTokens.length;\n  }\n\n  function tokenByIndex(uint256 _index) view public returns (uint256 tokenId) {\n    \n  }\n\n  function tokenOfOwnerByIndex(address _owner, uint256 _index) view public returns (uint256 tokenId) {\n    \n  }\n\n  function _mint(address _to, uint256 _tokenId) internal override(ERC721) {\n    super._mint(_to, _tokenId);\n\n    _addTokensToTotalSupply(_tokenId);\n  }\n\n  function _addTokensToTotalSupply(uint256 _tokenId) private {\n   _allTokens.push(_tokenId); \n  }\n}",
  "sourcePath": "C:\\Users\\emman\\Documents\\tutorial\\ethereum\\nft_with_web\\projects\\starter-kit\\src\\contracts\\ERC721Enumerable.sol",
  "compiler": {
    "name": "solc",
    "version": "0.8.9+commit.e5eed63a.Emscripten.clang"
  },
  "schemaVersion": "3.4.3",
  "updatedAt": "2021-10-06T19:51:16.409Z",
  "devdoc": {
    "kind": "dev",
    "methods": {},
    "version": 1
  },
  "userdoc": {
    "kind": "user",
    "methods": {},
    "version": 1
  }
}