{
  "contractName": "ERC721Connector",
  "abi": [
    {
      "inputs": [
        {
          "internalType": "string",
          "name": "name",
          "type": "string"
        },
        {
          "internalType": "string",
          "name": "symbol",
          "type": "string"
        }
      ],
      "stateMutability": "nonpayable",
      "type": "constructor"
    },
    {
      "anonymous": false,
      "inputs": [
        {
          "indexed": true,
          "internalType": "address",
          "name": "from",
          "type": "address"
        },
        {
          "indexed": true,
          "internalType": "address",
          "name": "to",
          "type": "address"
        },
        {
          "indexed": true,
          "internalType": "uint256",
          "name": "tokenID",
          "type": "uint256"
        }
      ],
      "name": "Transfer",
      "type": "event"
    },
    {
      "inputs": [
        {
          "internalType": "address",
          "name": "_owner",
          "type": "address"
        }
      ],
      "name": "balanceOf",
      "outputs": [
        {
          "internalType": "uint256",
          "name": "balance",
          "type": "uint256"
        }
      ],
      "stateMutability": "view",
      "type": "function"
    },
    {
      "inputs": [],
      "name": "getName",
      "outputs": [
        {
          "internalType": "string",
          "name": "name",
          "type": "string"
        }
      ],
      "stateMutability": "view",
      "type": "function"
    },
    {
      "inputs": [],
      "name": "getSymbol",
      "outputs": [
        {
          "internalType": "string",
          "name": "symbol",
          "type": "string"
        }
      ],
      "stateMutability": "view",
      "type": "function"
    },
    {
      "inputs": [
        {
          "internalType": "uint256",
          "name": "_tokenId",
          "type": "uint256"
        }
      ],
      "name": "ownerOf",
      "outputs": [
        {
          "internalType": "address",
          "name": "owner",
          "type": "address"
        }
      ],
      "stateMutability": "view",
      "type": "function"
    },
    {
      "inputs": [
        {
          "internalType": "uint256",
          "name": "_index",
          "type": "uint256"
        }
      ],
      "name": "tokenByIndex",
      "outputs": [
        {
          "internalType": "uint256",
          "name": "tokenId",
          "type": "uint256"
        }
      ],
      "stateMutability": "view",
      "type": "function"
    },
    {
      "inputs": [
        {
          "internalType": "address",
          "name": "_owner",
          "type": "address"
        },
        {
          "internalType": "uint256",
          "name": "_index",
          "type": "uint256"
        }
      ],
      "name": "tokenOfOwnerByIndex",
      "outputs": [
        {
          "internalType": "uint256",
          "name": "tokenId",
          "type": "uint256"
        }
      ],
      "stateMutability": "view",
      "type": "function"
    },
    {
      "inputs": [],
      "name": "totalSupply",
      "outputs": [
        {
          "internalType": "uint256",
          "name": "supply",
          "type": "uint256"
        }
      ],
      "stateMutability": "view",
      "type": "function"
    }
  ],
  "bytecode": "0x60806040523480156200001157600080fd5b5060405162000bff38038062000bff8339818101604052810190620000379190620002c2565b818181600090805190602001906200005192919062000075565b5080600190805190602001906200006a92919062000075565b5050505050620003ac565b828054620000839062000376565b90600052602060002090601f016020900481019282620000a75760008555620000f3565b82601f10620000c257805160ff1916838001178555620000f3565b82800160010185558215620000f3579182015b82811115620000f2578251825591602001919060010190620000d5565b5b50905062000102919062000106565b5090565b5b808211156200012157600081600090555060010162000107565b5090565b6000604051905090565b600080fd5b600080fd5b600080fd5b600080fd5b6000601f19601f8301169050919050565b7f4e487b7100000000000000000000000000000000000000000000000000000000600052604160045260246000fd5b6200018e8262000143565b810181811067ffffffffffffffff82111715620001b057620001af62000154565b5b80604052505050565b6000620001c562000125565b9050620001d3828262000183565b919050565b600067ffffffffffffffff821115620001f657620001f562000154565b5b620002018262000143565b9050602081019050919050565b60005b838110156200022e57808201518184015260208101905062000211565b838111156200023e576000848401525b50505050565b60006200025b6200025584620001d8565b620001b9565b9050828152602081018484840111156200027a57620002796200013e565b5b620002878482856200020e565b509392505050565b600082601f830112620002a757620002a662000139565b5b8151620002b984826020860162000244565b91505092915050565b60008060408385031215620002dc57620002db6200012f565b5b600083015167ffffffffffffffff811115620002fd57620002fc62000134565b5b6200030b858286016200028f565b925050602083015167ffffffffffffffff8111156200032f576200032e62000134565b5b6200033d858286016200028f565b9150509250929050565b7f4e487b7100000000000000000000000000000000000000000000000000000000600052602260045260246000fd5b600060028204905060018216806200038f57607f821691505b60208210811415620003a657620003a562000347565b5b50919050565b61084380620003bc6000396000f3fe608060405234801561001057600080fd5b506004361061007d5760003560e01c80632f745c591161005b5780632f745c59146100dc5780634f6ccce71461010c5780636352211e1461013c57806370a082311461016c5761007d565b8063150704011461008257806317d7de7c146100a057806318160ddd146100be575b600080fd5b61008a61019c565b60405161009791906104df565b60405180910390f35b6100a861022e565b6040516100b591906104df565b60405180910390f35b6100c66102c0565b6040516100d3919061051a565b60405180910390f35b6100f660048036038101906100f191906105c4565b6102cd565b604051610103919061051a565b60405180910390f35b61012660048036038101906101219190610604565b6102d5565b604051610133919061051a565b60405180910390f35b61015660048036038101906101519190610604565b6102dc565b6040516101639190610640565b60405180910390f35b6101866004803603810190610181919061065b565b61038e565b604051610193919061051a565b60405180910390f35b6060600180546101ab906106b7565b80601f01602080910402602001604051908101604052809291908181526020018280546101d7906106b7565b80156102245780601f106101f957610100808354040283529160200191610224565b820191906000526020600020905b81548152906001019060200180831161020757829003601f168201915b5050505050905090565b60606000805461023d906106b7565b80601f0160208091040260200160405190810160405280929190818152602001828054610269906106b7565b80156102b65780601f1061028b576101008083540402835291602001916102b6565b820191906000526020600020905b81548152906001019060200180831161029957829003601f168201915b5050505050905090565b6000600480549050905090565b600092915050565b6000919050565b6000806002600084815260200190815260200160002060009054906101000a900473ffffffffffffffffffffffffffffffffffffffff169050600073ffffffffffffffffffffffffffffffffffffffff168173ffffffffffffffffffffffffffffffffffffffff161415610385576040517f08c379a000000000000000000000000000000000000000000000000000000000815260040161037c9061075b565b60405180910390fd5b80915050919050565b60008073ffffffffffffffffffffffffffffffffffffffff168273ffffffffffffffffffffffffffffffffffffffff1614156103ff576040517f08c379a00000000000000000000000000000000000000000000000000000000081526004016103f6906107ed565b60405180910390fd5b600360008373ffffffffffffffffffffffffffffffffffffffff1673ffffffffffffffffffffffffffffffffffffffff168152602001908152602001600020549050919050565b600081519050919050565b600082825260208201905092915050565b60005b83811015610480578082015181840152602081019050610465565b8381111561048f576000848401525b50505050565b6000601f19601f8301169050919050565b60006104b182610446565b6104bb8185610451565b93506104cb818560208601610462565b6104d481610495565b840191505092915050565b600060208201905081810360008301526104f981846104a6565b905092915050565b6000819050919050565b61051481610501565b82525050565b600060208201905061052f600083018461050b565b92915050565b600080fd5b600073ffffffffffffffffffffffffffffffffffffffff82169050919050565b60006105658261053a565b9050919050565b6105758161055a565b811461058057600080fd5b50565b6000813590506105928161056c565b92915050565b6105a181610501565b81146105ac57600080fd5b50565b6000813590506105be81610598565b92915050565b600080604083850312156105db576105da610535565b5b60006105e985828601610583565b92505060206105fa858286016105af565b9150509250929050565b60006020828403121561061a57610619610535565b5b6000610628848285016105af565b91505092915050565b61063a8161055a565b82525050565b60006020820190506106556000830184610631565b92915050565b60006020828403121561067157610670610535565b5b600061067f84828501610583565b91505092915050565b7f4e487b7100000000000000000000000000000000000000000000000000000000600052602260045260246000fd5b600060028204905060018216806106cf57607f821691505b602082108114156106e3576106e2610688565b5b50919050565b7f4552433732313a206f776e657220746f20746865207a65726f2061646472657360008201527f7300000000000000000000000000000000000000000000000000000000000000602082015250565b6000610745602183610451565b9150610750826106e9565b604082019050919050565b6000602082019050818103600083015261077481610738565b9050919050565b7f4552433732313a2062616c616e636520746f20746865207a65726f206164647260008201527f6573730000000000000000000000000000000000000000000000000000000000602082015250565b60006107d7602383610451565b91506107e28261077b565b604082019050919050565b60006020820190508181036000830152610806816107ca565b905091905056fea264697066735822122059668afe9e041d67e8137e8054073b613791b5eeab10012ddf17e6cb5710136964736f6c63430008090033",
  "immutableReferences": {},
  "source": "// SPDX-License-Identifier: MIT\npragma solidity ^0.8.0;\n\nimport './ERC721Metadata.sol';\nimport './ERC721Enumerable.sol';\n\ncontract ERC721Connector is ERC721Metadata, ERC721Enumerable {\n  constructor (string memory name, string memory symbol) ERC721Metadata(name, symbol) {\n    \n  }\n}",
  "sourcePath": "C:\\Users\\emman\\Documents\\tutorial\\ethereum\\nft_with_web\\projects\\starter-kit\\src\\contracts\\ERC721Connector.sol",
  "compiler": {
    "name": "solc",
    "version": "0.8.9+commit.e5eed63a.Emscripten.clang"
  },
  "schemaVersion": "3.4.3",
  "updatedAt": "2021-10-06T19:51:16.399Z",
  "devdoc": {
    "kind": "dev",
    "methods": {},
    "version": 1
  },
  "userdoc": {
    "kind": "user",
    "methods": {},
    "version": 1
  }
}