{
  "contractName": "KryptoBird",
  "abi": [
    {
      "inputs": [],
      "stateMutability": "nonpayable",
      "type": "constructor"
    },
    {
      "anonymous": false,
      "inputs": [
        {
          "indexed": true,
          "internalType": "address",
          "name": "from",
          "type": "address"
        },
        {
          "indexed": true,
          "internalType": "address",
          "name": "to",
          "type": "address"
        },
        {
          "indexed": true,
          "internalType": "uint256",
          "name": "tokenID",
          "type": "uint256"
        }
      ],
      "name": "Transfer",
      "type": "event"
    },
    {
      "inputs": [
        {
          "internalType": "address",
          "name": "_owner",
          "type": "address"
        }
      ],
      "name": "balanceOf",
      "outputs": [
        {
          "internalType": "uint256",
          "name": "balance",
          "type": "uint256"
        }
      ],
      "stateMutability": "view",
      "type": "function",
      "constant": true
    },
    {
      "inputs": [],
      "name": "getName",
      "outputs": [
        {
          "internalType": "string",
          "name": "name",
          "type": "string"
        }
      ],
      "stateMutability": "view",
      "type": "function",
      "constant": true
    },
    {
      "inputs": [],
      "name": "getSymbol",
      "outputs": [
        {
          "internalType": "string",
          "name": "symbol",
          "type": "string"
        }
      ],
      "stateMutability": "view",
      "type": "function",
      "constant": true
    },
    {
      "inputs": [
        {
          "internalType": "uint256",
          "name": "",
          "type": "uint256"
        }
      ],
      "name": "kryptoBirdz",
      "outputs": [
        {
          "internalType": "string",
          "name": "",
          "type": "string"
        }
      ],
      "stateMutability": "view",
      "type": "function",
      "constant": true
    },
    {
      "inputs": [
        {
          "internalType": "uint256",
          "name": "_tokenId",
          "type": "uint256"
        }
      ],
      "name": "ownerOf",
      "outputs": [
        {
          "internalType": "address",
          "name": "owner",
          "type": "address"
        }
      ],
      "stateMutability": "view",
      "type": "function",
      "constant": true
    },
    {
      "inputs": [
        {
          "internalType": "uint256",
          "name": "_index",
          "type": "uint256"
        }
      ],
      "name": "tokenByIndex",
      "outputs": [
        {
          "internalType": "uint256",
          "name": "tokenId",
          "type": "uint256"
        }
      ],
      "stateMutability": "view",
      "type": "function",
      "constant": true
    },
    {
      "inputs": [
        {
          "internalType": "address",
          "name": "_owner",
          "type": "address"
        },
        {
          "internalType": "uint256",
          "name": "_index",
          "type": "uint256"
        }
      ],
      "name": "tokenOfOwnerByIndex",
      "outputs": [
        {
          "internalType": "uint256",
          "name": "ownerTokenId",
          "type": "uint256"
        }
      ],
      "stateMutability": "view",
      "type": "function",
      "constant": true
    },
    {
      "inputs": [],
      "name": "totalSupply",
      "outputs": [
        {
          "internalType": "uint256",
          "name": "supply",
          "type": "uint256"
        }
      ],
      "stateMutability": "view",
      "type": "function",
      "constant": true
    },
    {
      "inputs": [
        {
          "internalType": "string",
          "name": "_kryptoBird",
          "type": "string"
        }
      ],
      "name": "mint",
      "outputs": [],
      "stateMutability": "nonpayable",
      "type": "function"
    }
  ],
  "bytecode": "0x60806040523480156200001157600080fd5b506040518060400160405280600a81526020017f4b727970746f42697264000000000000000000000000000000000000000000008152506040518060400160405280600681526020017f4b424952445a00000000000000000000000000000000000000000000000000008152508181816000908051906020019062000098929190620000bc565b508060019080519060200190620000b1929190620000bc565b5050505050620001d1565b828054620000ca906200019b565b90600052602060002090601f016020900481019282620000ee57600085556200013a565b82601f106200010957805160ff19168380011785556200013a565b828001600101855582156200013a579182015b82811115620001395782518255916020019190600101906200011c565b5b5090506200014991906200014d565b5090565b5b80821115620001685760008160009055506001016200014e565b5090565b7f4e487b7100000000000000000000000000000000000000000000000000000000600052602260045260246000fd5b60006002820490506001821680620001b457607f821691505b60208210811415620001cb57620001ca6200016c565b5b50919050565b6114c380620001e16000396000f3fe608060405234801561001057600080fd5b50600436106100935760003560e01c80634f6ccce7116100665780634f6ccce7146101225780636352211e1461015257806370a082311461018257806393ab6e56146101b2578063d85d3d27146101e257610093565b8063150704011461009857806317d7de7c146100b657806318160ddd146100d45780632f745c59146100f2575b600080fd5b6100a06101fe565b6040516100ad9190610c09565b60405180910390f35b6100be610290565b6040516100cb9190610c09565b60405180910390f35b6100dc610322565b6040516100e99190610c44565b60405180910390f35b61010c60048036038101906101079190610cfd565b61032f565b6040516101199190610c44565b60405180910390f35b61013c60048036038101906101379190610d3d565b6103e0565b6040516101499190610c44565b60405180910390f35b61016c60048036038101906101679190610d3d565b610452565b6040516101799190610d79565b60405180910390f35b61019c60048036038101906101979190610d94565b610504565b6040516101a99190610c44565b60405180910390f35b6101cc60048036038101906101c79190610d3d565b6105bc565b6040516101d99190610c09565b60405180910390f35b6101fc60048036038101906101f79190610ef6565b610668565b005b60606001805461020d90610f6e565b80601f016020809104026020016040519081016040528092919081815260200182805461023990610f6e565b80156102865780601f1061025b57610100808354040283529160200191610286565b820191906000526020600020905b81548152906001019060200180831161026957829003601f168201915b5050505050905090565b60606000805461029f90610f6e565b80601f01602080910402602001604051908101604052809291908181526020018280546102cb90610f6e565b80156103185780601f106102ed57610100808354040283529160200191610318565b820191906000526020600020905b8154815290600101906020018083116102fb57829003601f168201915b5050505050905090565b6000600480549050905090565b600061033a83610504565b82111561037c576040517f08c379a000000000000000000000000000000000000000000000000000000000815260040161037390611012565b60405180910390fd5b600660008473ffffffffffffffffffffffffffffffffffffffff1673ffffffffffffffffffffffffffffffffffffffff16815260200190815260200160002082815481106103cd576103cc611032565b5b9060005260206000200154905092915050565b60006103ea610322565b82111561042c576040517f08c379a0000000000000000000000000000000000000000000000000000000008152600401610423906110d3565b60405180910390fd5b600482815481106104405761043f611032565b5b90600052602060002001549050919050565b6000806002600084815260200190815260200160002060009054906101000a900473ffffffffffffffffffffffffffffffffffffffff169050600073ffffffffffffffffffffffffffffffffffffffff168173ffffffffffffffffffffffffffffffffffffffff1614156104fb576040517f08c379a00000000000000000000000000000000000000000000000000000000081526004016104f290611165565b60405180910390fd5b80915050919050565b60008073ffffffffffffffffffffffffffffffffffffffff168273ffffffffffffffffffffffffffffffffffffffff161415610575576040517f08c379a000000000000000000000000000000000000000000000000000000000815260040161056c906111f7565b60405180910390fd5b600360008373ffffffffffffffffffffffffffffffffffffffff1673ffffffffffffffffffffffffffffffffffffffff168152602001908152602001600020549050919050565b600881815481106105cc57600080fd5b9060005260206000200160009150905080546105e790610f6e565b80601f016020809104026020016040519081016040528092919081815260200182805461061390610f6e565b80156106605780601f1061063557610100808354040283529160200191610660565b820191906000526020600020905b81548152906001019060200180831161064357829003601f168201915b505050505081565b6009816040516106789190611253565b908152602001604051809103902060009054906101000a900460ff16156106d4576040517f08c379a00000000000000000000000000000000000000000000000000000000081526004016106cb906112b6565b60405180910390fd5b60088190806001815401808255809150506001900390600052602060002001600090919091909150908051906020019061070f929190610acd565b50600060016008805490506107249190611305565b9050610730338261076b565b60016009836040516107429190611253565b908152602001604051809103902060006101000a81548160ff0219169083151502179055505050565b610775828261078c565b61077e8161094e565b6107888282610997565b5050565b600073ffffffffffffffffffffffffffffffffffffffff168273ffffffffffffffffffffffffffffffffffffffff1614156107fc576040517f08c379a00000000000000000000000000000000000000000000000000000000081526004016107f3906113ab565b60405180910390fd5b61080581610a5b565b15610845576040517f08c379a000000000000000000000000000000000000000000000000000000000815260040161083c90611417565b60405180910390fd5b816002600083815260200190815260200160002060006101000a81548173ffffffffffffffffffffffffffffffffffffffff021916908373ffffffffffffffffffffffffffffffffffffffff1602179055506001600360008473ffffffffffffffffffffffffffffffffffffffff1673ffffffffffffffffffffffffffffffffffffffff16815260200190815260200160002060008282546108e79190611437565b92505081905550808273ffffffffffffffffffffffffffffffffffffffff16600073ffffffffffffffffffffffffffffffffffffffff167fddf252ad1be2c89b69c2b068fc378daa952ba7f163c4a11628f55a4df523b3ef60405160405180910390a45050565b6004805490506005600083815260200190815260200160002081905550600481908060018154018082558091505060019003906000526020600020016000909190919091505550565b600660008373ffffffffffffffffffffffffffffffffffffffff1673ffffffffffffffffffffffffffffffffffffffff168152602001908152602001600020805490506007600083815260200190815260200160002081905550600660008373ffffffffffffffffffffffffffffffffffffffff1673ffffffffffffffffffffffffffffffffffffffff1681526020019081526020016000208190806001815401808255809150506001900390600052602060002001600090919091909150555050565b6000806002600084815260200190815260200160002060009054906101000a900473ffffffffffffffffffffffffffffffffffffffff169050600073ffffffffffffffffffffffffffffffffffffffff168173ffffffffffffffffffffffffffffffffffffffff161415915050919050565b828054610ad990610f6e565b90600052602060002090601f016020900481019282610afb5760008555610b42565b82601f10610b1457805160ff1916838001178555610b42565b82800160010185558215610b42579182015b82811115610b41578251825591602001919060010190610b26565b5b509050610b4f9190610b53565b5090565b5b80821115610b6c576000816000905550600101610b54565b5090565b600081519050919050565b600082825260208201905092915050565b60005b83811015610baa578082015181840152602081019050610b8f565b83811115610bb9576000848401525b50505050565b6000601f19601f8301169050919050565b6000610bdb82610b70565b610be58185610b7b565b9350610bf5818560208601610b8c565b610bfe81610bbf565b840191505092915050565b60006020820190508181036000830152610c238184610bd0565b905092915050565b6000819050919050565b610c3e81610c2b565b82525050565b6000602082019050610c596000830184610c35565b92915050565b6000604051905090565b600080fd5b600080fd5b600073ffffffffffffffffffffffffffffffffffffffff82169050919050565b6000610c9e82610c73565b9050919050565b610cae81610c93565b8114610cb957600080fd5b50565b600081359050610ccb81610ca5565b92915050565b610cda81610c2b565b8114610ce557600080fd5b50565b600081359050610cf781610cd1565b92915050565b60008060408385031215610d1457610d13610c69565b5b6000610d2285828601610cbc565b9250506020610d3385828601610ce8565b9150509250929050565b600060208284031215610d5357610d52610c69565b5b6000610d6184828501610ce8565b91505092915050565b610d7381610c93565b82525050565b6000602082019050610d8e6000830184610d6a565b92915050565b600060208284031215610daa57610da9610c69565b5b6000610db884828501610cbc565b91505092915050565b600080fd5b600080fd5b7f4e487b7100000000000000000000000000000000000000000000000000000000600052604160045260246000fd5b610e0382610bbf565b810181811067ffffffffffffffff82111715610e2257610e21610dcb565b5b80604052505050565b6000610e35610c5f565b9050610e418282610dfa565b919050565b600067ffffffffffffffff821115610e6157610e60610dcb565b5b610e6a82610bbf565b9050602081019050919050565b82818337600083830152505050565b6000610e99610e9484610e46565b610e2b565b905082815260208101848484011115610eb557610eb4610dc6565b5b610ec0848285610e77565b509392505050565b600082601f830112610edd57610edc610dc1565b5b8135610eed848260208601610e86565b91505092915050565b600060208284031215610f0c57610f0b610c69565b5b600082013567ffffffffffffffff811115610f2a57610f29610c6e565b5b610f3684828501610ec8565b91505092915050565b7f4e487b7100000000000000000000000000000000000000000000000000000000600052602260045260246000fd5b60006002820490506001821680610f8657607f821691505b60208210811415610f9a57610f99610f3f565b5b50919050565b7f4f776e657220746f6b656e20696e646578206973206f7574206f6620626f756e60008201527f6473210000000000000000000000000000000000000000000000000000000000602082015250565b6000610ffc602383610b7b565b915061100782610fa0565b604082019050919050565b6000602082019050818103600083015261102b81610fef565b9050919050565b7f4e487b7100000000000000000000000000000000000000000000000000000000600052603260045260246000fd5b7f476c6f62616c20746f6b656e20696e646578206973206f7574206f6620626f7560008201527f6e64732100000000000000000000000000000000000000000000000000000000602082015250565b60006110bd602483610b7b565b91506110c882611061565b604082019050919050565b600060208201905081810360008301526110ec816110b0565b9050919050565b7f4552433732313a206f776e657220746f20746865207a65726f2061646472657360008201527f7300000000000000000000000000000000000000000000000000000000000000602082015250565b600061114f602183610b7b565b915061115a826110f3565b604082019050919050565b6000602082019050818103600083015261117e81611142565b9050919050565b7f4552433732313a2062616c616e636520746f20746865207a65726f206164647260008201527f6573730000000000000000000000000000000000000000000000000000000000602082015250565b60006111e1602383610b7b565b91506111ec82611185565b604082019050919050565b60006020820190508181036000830152611210816111d4565b9050919050565b600081905092915050565b600061122d82610b70565b6112378185611217565b9350611247818560208601610b8c565b80840191505092915050565b600061125f8284611222565b915081905092915050565b7f4572726f723a204b727970746f4269726420616c726561647920657869737400600082015250565b60006112a0601f83610b7b565b91506112ab8261126a565b602082019050919050565b600060208201905081810360008301526112cf81611293565b9050919050565b7f4e487b7100000000000000000000000000000000000000000000000000000000600052601160045260246000fd5b600061131082610c2b565b915061131b83610c2b565b92508282101561132e5761132d6112d6565b5b828203905092915050565b7f4552433732313a206d696e74696e6720746f20746865207a65726f206164647260008201527f6573730000000000000000000000000000000000000000000000000000000000602082015250565b6000611395602383610b7b565b91506113a082611339565b604082019050919050565b600060208201905081810360008301526113c481611388565b9050919050565b7f4552433732313a20546f6b656e20616c7265616479206d696e74656400000000600082015250565b6000611401601c83610b7b565b915061140c826113cb565b602082019050919050565b60006020820190508181036000830152611430816113f4565b9050919050565b600061144282610c2b565b915061144d83610c2b565b9250827fffffffffffffffffffffffffffffffffffffffffffffffffffffffffffffffff03821115611482576114816112d6565b5b82820190509291505056fea2646970667358221220eaf5b4e03354b969f2e5f431ba28f5b2b361a077b40cf4faf80b30bb3060018d64736f6c63430008090033",
  "immutableReferences": {},
  "source": "// SPDX-License-Identifier: MIT\npragma solidity ^0.8.0;\n\nimport './ERC721Connector.sol';\n\ncontract KryptoBird is ERC721Connector {\n  string[] public kryptoBirdz;\n  mapping (string => bool) _kryptoBirdzExists;\n\n  constructor () ERC721Connector('KryptoBird','KBIRDZ') {}\n\n  function mint(string memory _kryptoBird) public {\n    require(!_kryptoBirdzExists[_kryptoBird], \"Error: KryptoBird already exist\");\n\n    kryptoBirdz.push(_kryptoBird);\n    uint256 _id = kryptoBirdz.length - 1;\n\n    _mint(msg.sender, _id);\n    _kryptoBirdzExists[_kryptoBird] = true;\n  }\n}",
  "sourcePath": "C:\\Users\\emman\\Documents\\tutorial\\ethereum\\nft_with_web\\projects\\starter-kit\\src\\contracts\\KryptoBirdz.sol",
  "compiler": {
    "name": "solc",
    "version": "0.8.9+commit.e5eed63a.Emscripten.clang"
  },
  "schemaVersion": "3.4.3",
  "updatedAt": "2021-10-06T21:18:36.488Z",
  "networkType": "ethereum",
  "devdoc": {
    "kind": "dev",
    "methods": {},
    "version": 1
  },
  "userdoc": {
    "kind": "user",
    "methods": {},
    "version": 1
  }
}